{
  "_format": "hh-sol-artifact-1",
  "contractName": "ClueconnTickets",
  "sourceName": "contracts/ClueconnTickets.sol",
  "abi": [
    {
      "inputs": [],
      "stateMutability": "nonpayable",
      "type": "constructor"
    },
    {
      "anonymous": false,
      "inputs": [
        {
          "indexed": true,
          "internalType": "uint256",
          "name": "ticketId",
          "type": "uint256"
        },
        {
          "indexed": true,
          "internalType": "address",
          "name": "ticketContract",
          "type": "address"
        },
        {
          "indexed": true,
          "internalType": "uint256",
          "name": "tokenId",
          "type": "uint256"
        },
        {
          "indexed": false,
          "internalType": "address",
          "name": "creator",
          "type": "address"
        },
        {
          "indexed": false,
          "internalType": "address",
          "name": "owner",
          "type": "address"
        },
        {
          "indexed": false,
          "internalType": "uint256",
          "name": "price",
          "type": "uint256"
        },
        {
          "indexed": false,
          "internalType": "string",
          "name": "eventId",
          "type": "string"
        },
        {
          "indexed": false,
          "internalType": "bool",
          "name": "sold",
          "type": "bool"
        },
        {
          "indexed": false,
          "internalType": "bool",
          "name": "scanned",
          "type": "bool"
        }
      ],
      "name": "TicketCreated",
      "type": "event"
    },
    {
      "inputs": [
        {
          "internalType": "address",
          "name": "ticketContract",
          "type": "address"
        },
        {
          "internalType": "uint256",
          "name": "tokenId",
          "type": "uint256"
        },
        {
          "internalType": "uint256",
          "name": "price",
          "type": "uint256"
        },
        {
          "internalType": "address",
          "name": "creator",
          "type": "address"
        },
        {
          "internalType": "string",
          "name": "eventId",
          "type": "string"
        }
      ],
      "name": "createTicket",
      "outputs": [],
      "stateMutability": "payable",
      "type": "function"
    },
    {
      "inputs": [
        {
          "internalType": "address",
          "name": "ticketContract",
          "type": "address"
        },
        {
          "internalType": "uint256",
          "name": "ticketId",
          "type": "uint256"
        }
      ],
      "name": "createTicketSale",
      "outputs": [],
      "stateMutability": "payable",
      "type": "function"
    },
    {
      "inputs": [
        {
          "internalType": "string",
          "name": "eventId",
          "type": "string"
        }
      ],
      "name": "fetchEventTickets",
      "outputs": [
        {
          "components": [
            {
              "internalType": "uint256",
              "name": "ticketId",
              "type": "uint256"
            },
            {
              "internalType": "address",
              "name": "ticketContract",
              "type": "address"
            },
            {
              "internalType": "uint256",
              "name": "tokenId",
              "type": "uint256"
            },
            {
              "internalType": "address payable",
              "name": "creator",
              "type": "address"
            },
            {
              "internalType": "address payable",
              "name": "owner",
              "type": "address"
            },
            {
              "internalType": "uint256",
              "name": "price",
              "type": "uint256"
            },
            {
              "internalType": "string",
              "name": "eventId",
              "type": "string"
            },
            {
              "internalType": "bool",
              "name": "sold",
              "type": "bool"
            },
            {
              "internalType": "bool",
              "name": "scanned",
              "type": "bool"
            }
          ],
          "internalType": "struct ClueconnTickets.Ticket[]",
          "name": "",
          "type": "tuple[]"
        }
      ],
      "stateMutability": "view",
      "type": "function"
    },
    {
      "inputs": [],
      "name": "fetchMyTickets",
      "outputs": [
        {
          "components": [
            {
              "internalType": "uint256",
              "name": "ticketId",
              "type": "uint256"
            },
            {
              "internalType": "address",
              "name": "ticketContract",
              "type": "address"
            },
            {
              "internalType": "uint256",
              "name": "tokenId",
              "type": "uint256"
            },
            {
              "internalType": "address payable",
              "name": "creator",
              "type": "address"
            },
            {
              "internalType": "address payable",
              "name": "owner",
              "type": "address"
            },
            {
              "internalType": "uint256",
              "name": "price",
              "type": "uint256"
            },
            {
              "internalType": "string",
              "name": "eventId",
              "type": "string"
            },
            {
              "internalType": "bool",
              "name": "sold",
              "type": "bool"
            },
            {
              "internalType": "bool",
              "name": "scanned",
              "type": "bool"
            }
          ],
          "internalType": "struct ClueconnTickets.Ticket[]",
          "name": "",
          "type": "tuple[]"
        }
      ],
      "stateMutability": "view",
      "type": "function"
    },
    {
      "inputs": [],
      "name": "getTicketListingPrice",
      "outputs": [
        {
          "internalType": "uint256",
          "name": "",
          "type": "uint256"
        }
      ],
      "stateMutability": "view",
      "type": "function"
    },
    {
      "inputs": [
        {
          "internalType": "uint256",
          "name": "ticketId",
          "type": "uint256"
        }
      ],
      "name": "scanTicket",
      "outputs": [],
      "stateMutability": "payable",
      "type": "function"
    }
  ],
  "bytecode": "0x6080604052600060045534801561001557600080fd5b506001600055600380546001600160a01b031916331790556111188061003c6000396000f3fe6080604052600436106100555760003560e01c80633229f0e11461005a578063333a657e14610085578063692ac262146100a557806377fd141e146100ba578063a7336604146100d8578063daf62ebb146100eb575b600080fd5b34801561006657600080fd5b5061006f6100fe565b60405161007c9190610f01565b60405180910390f35b34801561009157600080fd5b5061006f6100a0366004610d7e565b610399565b6100b86100b3366004610d0e565b6106b9565b005b3480156100c657600080fd5b5060045460405190815260200161007c565b6100b86100e6366004610ce5565b610930565b6100b86100f9366004610db9565b610b12565b6060600061010b60025490565b905060008060005b8381101561016e57336005600061012b846001611018565b81526020810191909152604001600020600401546001600160a01b0316141561015c57610159600184611018565b92505b806101668161109b565b915050610113565b5060008267ffffffffffffffff81111561019857634e487b7160e01b600052604160045260246000fd5b6040519080825280602002602001820160405280156101d157816020015b6101be610b5e565b8152602001906001900390816101b65790505b50905060005b848110156103905733600560006101ef846001611018565b81526020810191909152604001600020600401546001600160a01b0316141561037e57600061021f826001611018565b6000818152600560208181526040928390208351610120810185528154815260018201546001600160a01b0390811693820193909352600282015494810194909452600381015482166060850152600481015490911660808401529081015460a08301526006810180549394509092839160c084019161029e90611060565b80601f01602080910402602001604051908101604052809291908181526020018280546102ca90611060565b80156103175780601f106102ec57610100808354040283529160200191610317565b820191906000526020600020905b8154815290600101906020018083116102fa57829003601f168201915b50505091835250506007919091015460ff80821615156020840152610100909104161515604090910152845185908790811061036357634e487b7160e01b600052603260045260246000fd5b6020908102919091010152610379600186611018565b945050505b806103888161109b565b9150506101d7565b50949350505050565b606060006103a660025490565b905060008060005b8381101561044b57856040516020016103c79190610dfd565b60405160208183030381529060405280519060200120600560008360016103ee9190611018565b815260200190815260200160002060060160405160200161040f9190610e19565b60405160208183030381529060405280519060200120141561043957610436600184611018565b92505b806104438161109b565b9150506103ae565b5060008267ffffffffffffffff81111561047557634e487b7160e01b600052604160045260246000fd5b6040519080825280602002602001820160405280156104ae57816020015b61049b610b5e565b8152602001906001900390816104935790505b50905060005b848110156106af57866040516020016104cd9190610dfd565b60405160208183030381529060405280519060200120600560008360016104f49190611018565b81526020019081526020016000206006016040516020016105159190610e19565b60405160208183030381529060405280519060200120141561069d57600061053e826001611018565b6000818152600560208181526040928390208351610120810185528154815260018201546001600160a01b0390811693820193909352600282015494810194909452600381015482166060850152600481015490911660808401529081015460a08301526006810180549394509092839160c08401916105bd90611060565b80601f01602080910402602001604051908101604052809291908181526020018280546105e990611060565b80156106365780601f1061060b57610100808354040283529160200191610636565b820191906000526020600020905b81548152906001019060200180831161061957829003601f168201915b50505091835250506007919091015460ff80821615156020840152610100909104161515604090910152845185908790811061068257634e487b7160e01b600052603260045260246000fd5b6020908102919091010152610698600186611018565b945050505b806106a78161109b565b9150506104b4565b5095945050505050565b600260005414156106e55760405162461bcd60e51b81526004016106dc90610fe1565b60405180910390fd5b6002600055600454341461074f5760405162461bcd60e51b815260206004820152602b60248201527f5072696365206d75737420626520657175616c20746f207469636b6574206c6960448201526a7374696e6720707269636560a81b60648201526084016106dc565b61075d600280546001019055565b600061076860025490565b60408051610120810182528281526001600160a01b03808a1660208084019182528385018b81528984166060860190815260006080870181815260a088018e815260c089018d815260e08a018490526101008a018490528b845260058088529a909320895181559651600188018054918a166001600160a01b03199283161790559451600288015592516003870180549189169186169190911790555160048601805491909716931692909217909455925194820194909455905180519495509193909261083d926006850192910190610ba9565b5060e082015160079190910180546101009384015161ffff1990911692151561ff001916929092179115159092021790556040516323b872dd60e01b8152336004820152306024820152604481018690526001600160a01b038716906323b872dd90606401600060405180830381600087803b1580156108bc57600080fd5b505af11580156108d0573d6000803e3d6000fd5b5050505084866001600160a01b0316827fcaa2a5ca06bf299e33fd3b58f27bb58136090138fd5253fa705f92f2749c35f9336000898860008060405161091b96959493929190610eb4565b60405180910390a45050600160005550505050565b600260005414156109535760405162461bcd60e51b81526004016106dc90610fe1565b60026000818155828152600560208190526040909120908101549101543482146109db5760405162461bcd60e51b815260206004820152603360248201527f506c65617365207375626d697420746865207469636b657420707269636520746044820152726f20636f6d706c65746520707572636861736560681b60648201526084016106dc565b6000838152600560205260408082206003015490516001600160a01b03909116913480156108fc02929091818181858888f19350505050158015610a23573d6000803e3d6000fd5b506040516323b872dd60e01b8152306004820152336024820152604481018290526001600160a01b038516906323b872dd90606401600060405180830381600087803b158015610a7257600080fd5b505af1158015610a86573d6000803e3d6000fd5b50505060008481526005602052604090206004810180546001600160a01b03191633179055600701805460ff19166001908117909155610aca915080546001019055565b6003546004546040516001600160a01b039092169181156108fc0291906000818181858888f19350505050158015610b06573d6000803e3d6000fd5b50506001600055505050565b60026000541415610b355760405162461bcd60e51b81526004016106dc90610fe1565b60026000908155908152600560205260408120600701805461ff00191661010017905560019055565b604080516101208101825260008082526020820181905291810182905260608082018390526080820183905260a0820183905260c082015260e0810182905261010081019190915290565b828054610bb590611060565b90600052602060002090601f016020900481019282610bd75760008555610c1d565b82601f10610bf057805160ff1916838001178555610c1d565b82800160010185558215610c1d579182015b82811115610c1d578251825591602001919060010190610c02565b50610c29929150610c2d565b5090565b5b80821115610c295760008155600101610c2e565b80356001600160a01b0381168114610c5957600080fd5b919050565b600082601f830112610c6e578081fd5b813567ffffffffffffffff80821115610c8957610c896110cc565b604051601f8301601f19908116603f01168101908282118183101715610cb157610cb16110cc565b81604052838152866020858801011115610cc9578485fd5b8360208701602083013792830160200193909352509392505050565b60008060408385031215610cf7578182fd5b610d0083610c42565b946020939093013593505050565b600080600080600060a08688031215610d25578081fd5b610d2e86610c42565b94506020860135935060408601359250610d4a60608701610c42565b9150608086013567ffffffffffffffff811115610d65578182fd5b610d7188828901610c5e565b9150509295509295909350565b600060208284031215610d8f578081fd5b813567ffffffffffffffff811115610da5578182fd5b610db184828501610c5e565b949350505050565b600060208284031215610dca578081fd5b5035919050565b60008151808452610de9816020860160208601611030565b601f01601f19169290920160200192915050565b60008251610e0f818460208701611030565b9190910192915050565b600080835482600182811c915080831680610e3557607f831692505b6020808410821415610e5557634e487b7160e01b87526022600452602487fd5b818015610e695760018114610e7a57610ea6565b60ff19861689528489019650610ea6565b60008a815260209020885b86811015610e9e5781548b820152908501908301610e85565b505084890196505b509498975050505050505050565b6001600160a01b038781168252861660208201526040810185905260c060608201819052600090610ee790830186610dd1565b93151560808301525090151560a090910152949350505050565b60006020808301818452808551808352604092508286019150828160051b870101848801865b83811015610fd357603f19898403018552815180518452878101516001600160a01b039081168986015287820151888601526060808301518216908601526080808301519091169085015260a0808201519085015260c0808201516101208287018190529190610f9983880182610dd1565b9250505060e080830151610fb08288018215159052565b505061010091820151151594909101939093529386019390860190600101610f27565b509098975050505050505050565b6020808252601f908201527f5265656e7472616e637947756172643a207265656e7472616e742063616c6c00604082015260600190565b6000821982111561102b5761102b6110b6565b500190565b60005b8381101561104b578181015183820152602001611033565b8381111561105a576000848401525b50505050565b600181811c9082168061107457607f821691505b6020821081141561109557634e487b7160e01b600052602260045260246000fd5b50919050565b60006000198214156110af576110af6110b6565b5060010190565b634e487b7160e01b600052601160045260246000fd5b634e487b7160e01b600052604160045260246000fdfea2646970667358221220b0fb4ed419a779913a93d4a70c956707dddf656eeff6c92f1be5efdcb7c5fdce64736f6c63430008040033",
  "linkReferences": {},
  "deployedLinkReferences": {}
}